:100000000C9434000C9451000C9451000C94510049
:100010000C9451000C9451000C9451000C9451001C
:100020000C9451000C9451000C9451000C9451000C
:100030000C9451000C9451000C9453000C945100FA
:100040000C9451000C9451000C9451000C945100EC
:100050000C9451000C9451000C9451000C945100DC
:100060000C9451000C94510011241FBECFEFD8E026
:10007000DEBFCDBF11E0A0E0B1E0ECEBF4E002C0E8
:1000800005900D92A630B107D9F721E0A6E0B1E0C6
:1000900001C01D92AC31B207E1F70E94FF010C9440
:1000A0005C020C9400001F920F920FB60F92112465
:1000B0008F939F93AF93BF938091180190911901F3
:1000C000A0911A01B0911B010196A11DB11D809351
:1000D000180190931901A0931A01B0931B01BF91CD
:1000E000AF919F918F910F900FBE0F901F90189519
:1000F000F894609118017091190180911A01909102
:100100001B01789408958AB18C6F8AB984B18F608D
:1001100084B984B18F7C84B985B1806385B98BB192
:10012000837C8BB98BB18F738BB985B1807F85B997
:1001300082E084BD83E085BD89EF87BDEEE6F0E017
:10014000808182608083089580FF02C05A9A01C036
:100150005A9881FF02C05B9A01C05B9882FF02C07F
:100160005C9A01C05C9883FF02C05D9A01C05D98F3
:100170008BB18F738BB985B1807F85B9623081F087
:1001800030F4662359F0613081F45F9A0EC0643018
:1001900059F040F0653049F42B9A07C05E9A05C0CB
:1001A000289A03C0299A01C02A9A8FED9EE20197EE
:1001B000F1F700C00000623081F028F4662349F0B6
:1001C000613049F00895643061F048F0653059F0CD
:1001D00008955E9808955F9808952898089529983D
:1001E00008952A9808952B9808958091170160E04A
:1001F0000E94A4008091160161E00E94A4008091F9
:10020000150162E00E94A4008091140163E00E9445
:10021000A4008091130164E00E94A4008091120167
:1002200065E00C94A400809112018F5F809312010D
:10023000809112018A3008F444C01092120180911A
:1002400013018F5F80931301809113018630C8F1F1
:1002500010921301809114018F5F8093140180919B
:1002600014018A3070F110921401809115018F5F92
:100270008093150180911501863018F110921501B7
:10028000809116018F5F8093160180911701823053
:1002900080F4809116018A30A0F0109216018091AE
:1002A00017018F5F8093170180911701833048F009
:1002B00006C080911601843020F010921601109231
:1002C0001701089590911701809116012AE0929FDD
:1002D000800D112408956AE00E942802809317017E
:1002E00090931601089590911501809114012AE0D0
:1002F000929F800D112408956AE00E942802809345
:100300001501909314010895CF92DF92EF92FF921E
:100310000F931F93CF93DF9383B1D1E0082F007128
:1003200084FFD0E083B1C1E0182F107285FFC0E0D8
:100330000E9478006B017C01011129C080910101AC
:10034000882329F180910A0190910B01A0910C0161
:10035000B0910D01A7019601281B390B4A0B5B0BCD
:10036000293C31054105510590F00E94620190E061
:10037000019668E170E00E9434020E946B01C09215
:100380000A01D0920B01E0920C01F0920D011111C3
:1003900029C080910001882329F180910601909164
:1003A0000701A0910801B0910901A7019601281B3E
:1003B000390B4A0B5B0B293C31054105510590F087
:1003C0000E94730190E001966CE370E00E94340299
:1003D0000E947C01C0920601D0920701E0920801C0
:1003E000F0920901D0930101C0930001DF91CF91F8
:1003F0001F910F91FF90EF90DF90CF9008950E9492
:10040000830078940E94780000910E0110910F01F2
:1004100020911001309111016B017C01C01AD10AA9
:10042000E20AF30A48EEC41643E0D406E104F104FC
:1004300050F060930E0170930F0180931001909320
:1004400011010E9413010E9484010E94F500DACF7D
:10045000991B79E004C0991F961708F0961B881F16
:100460007A95C9F78095089597FB072E16F40094A6
:1004700007D077FD09D00E94480207FC05D03EF462
:10048000909581959F4F0895709561957F4F089540
:10049000AA1BBB1B51E107C0AA1FBB1FA617B707AA
:1004A00010F0A61BB70B881F991F5A95A9F78095C6
:0C04B0009095BC01CD010895F894FFCF99
:0604BC000101C800000070
:00000001FF
